:020000040800F2
:1000000000000420A1080008290800082F080008A3
:10001000350800083B0800084108000800000000FF
:100020000000000000000000000000004708000879
:100030005508000800000000630800087108000867
:10004000F1080008F1080008F1080008F1080008AC
:10005000F1080008F1080008F1080008F10800089C
:10006000F1080008F1080008F1080008F10800088C
:10007000F1080008F1080008F1080008F10800087C
:10008000F1080008F1080008F1080008F10800086C
:10009000F1080008F1080008F1080008F10800085C
:1000A000F1080008F1080008F1080008F10800084C
:1000B000F1080008F1080008F1080008F10800083C
:1000C000F1080008F1080008F1080008F10800082C
:1000D000F1080008F1080008F1080008F10800081C
:1000E000F1080008F1080008F1080008F10800080C
:1000F000F1080008F1080008F1080008F1080008FC
:1001000000000000F1080008F1080008F1080008EC
:100110000000000000000000F1080008F1080008DD
:10012000F1080008F1080008F1080008F1080008CB
:10013000F1080008F1080008F1080008F1080008BB
:10014000F1080008F1080008F1080008F1080008AB
:10015000F1080008F1080008F1080008F10800089B
:10016000F1080008F108000800000000000000008D
:10017000000000000000000000000000000000007F
:10018000F1080008F108000800000000000000006D
:10019000F1080008F108000800000000000000005D
:1001A000000000000000000000000000000000004F
:1001B000F10800080000000000000000F10800083D
:0401C000F10800083A
:1001C40010B5054C237833B9044B13B10448AFF38D
:1001D40000800123237010BD0C00002000000000EB
:1001E400681C000808B5034B1BB103490348AFF36F
:1001F400008008BD0000000010000020681C0008FA
:1002040053B94AB9002908BF00281CBF4FF0FF3179
:100214004FF0FF3000F074B9ADF1080C6DE904CE75
:1002240000F006F8DDF804E0DDE9022304B07047CD
:100234002DE9F047089D04468E46002B4DD18A4295
:10024400944669D9B2FA82F252B101FA02F3C2F1C8
:10025400200120FA01F10CFA02FC41EA030E944059
:100264004FEA1C48210CBEFBF8F61FFA8CF708FB7A
:1002740016E341EA034306FB07F199420AD91CEB52
:10028400030306F1FF3080F01F81994240F21C8184
:10029400023E63445B1AA4B2B3FBF8F008FB1033CC
:1002A40044EA034400FB07F7A7420AD91CEB040401
:1002B40000F1FF3380F00A81A74240F207816444D1
:1002C400023840EA0640E41B00261DB1D440002356
:1002D400C5E900433146BDE8F0878B4209D9002DBA
:1002E40000F0EF800026C5E9000130463146BDE844
:1002F400F087B3FA83F6002E4AD18B4202D38242AE
:1003040000F2F980841A61EB030301209E46002D5C
:10031400E0D0C5E9004EDDE702B9FFDEB2FA82F2B1
:10032400002A40F09280A1EB0C014FEA1C471FFA0F
:100334008CFE0126200CB1FBF7F307FB131140EAF6
:1003440001410EFB03F0884208D91CEB010103F1C3
:10035400FF3802D2884200F2CB804346091AA4B285
:10036400B1FBF7F007FB101144EA01440EFB00FE59
:10037400A64508D91CEB040400F1FF3102D2A645BE
:1003840000F2BB800846A4EB0E0440EA03409CE75D
:10039400C6F12007B34022FA07FC4CEA030C20FA0A
:1003A40007F401FA06F31C43F9404FEA1C4900FA2A
:1003B40006F3B1FBF9F8200C1FFA8CFE09FB1811A7
:1003C40040EA014108FB0EF0884202FA06F20BD91A
:1003D4001CEB010108F1FF3A80F08880884240F26A
:1003E4008580A8F102086144091AA4B2B1FBF9F0AE
:1003F40009FB101144EA014100FB0EFE8E4508D9A9
:100404001CEB010100F1FF346CD28E456AD902382D
:10041400614440EA0840A0FB0294A1EB0E01A14212
:10042400C846A64656D353D05DB1B3EB080261EB80
:100434000E0101FA07F722FA06F3F1401F43C5E95A
:10044400007100263146BDE8F087C2F12003D84090
:100454000CFA02FC21FA03F3914001434FEA1C47D2
:100464001FFA8CFEB3FBF7F007FB10360B0C43EAC4
:10047400064300FB0EF69E4204FA02F408D91CEB74
:10048400030300F1FF382FD29E422DD90238634472
:100494009B1B89B2B3FBF7F607FB163341EA034112
:1004A40006FB0EF38B4208D91CEB010106F1FF3861
:1004B40016D28B4214D9023E6144C91A46EA004658
:1004C40038E72E46284605E70646E3E61846F8E6EA
:1004D4004B45A9D2B9EB020864EB0C0E0138A3E733
:1004E4004646EAE7204694E74046D1E7D0467BE714
:1004F400023B614432E7304609E76444023842E78C
:10050400704700BF80B582B000AF194B1B687B6099
:1005140001220121174800F023FE41F2883000F047
:100524008DFA154B1B6B144A23F001031363124B12
:100534001B6B114A23F0020313630F4B1B6B0E4A10
:1005440023F0040313630C4B1B6B0B4A23F080034F
:1005540013630121074800F00FFD01F007F800F0D4
:10056400E9F97B68984700BF0837BD4680BD00BFE6
:1005740004000408000402400038024080B500AFC3
:1005840000F0B6F900F006F800F070F8FFF7BAFFD3
:10059400FEE7000080B594B000AF07F11C033422DD
:1005A4000021184601F056FB07F1080300221A60E7
:1005B4005A609A60DA601A6100237B60294B1B6CD5
:1005C400284A43F080531364264B1B6C03F080537A
:1005D4007B607B6800233B60234B1B68224A43F407
:1005E40040431360204B1B6803F440433B603B686B
:1005F4000123FB614FF4A0233B6202237B634FF48E
:100604008003BB630823FB634FF4C0733B64042380
:100614007B640823BB640223FB6407F11C031846B4
:1006240001F070F80346002B01D000F0CDF80F2341
:10063400BB600223FB6000233B614FF480537B616A
:100644000023BB6107F108030321184600F0A2FD53
:100654000346002B01D000F0B7F800BF5037BD4669
:1006640080BD00BF003802400070004080B58CB0EF
:1006740000AF07F11C0300221A605A609A60DA6026
:100684001A610023BB614C4B1B6B4B4A43F00403C0
:100694001363494B1B6B03F00403BB61BB69002369
:1006A4007B61454B1B6B444A43F080031363424B0D
:1006B4001B6B03F080037B617B6900233B613E4B32
:1006C4001B6B3D4A43F0020313633B4B1B6B03F06C
:1006D40002033B613B690023FB60374B1B6B364ACB
:1006E40043F008031363344B1B6B03F00803FB60F4
:1006F400FB680023BB60304B1B6B2F4A43F0400365
:1007040013632D4B1B6B03F04003BB60BB680023DA
:100714007B60294B1B6B284A43F001031363264B70
:100724001B6B03F001037B607B68002244F28101B0
:10073400224800F015FD00224021214800F010FD60
:100744004FF40053FB614FF488133B6200237B6238
:1007540007F11C0319461B4800F07AFA44F281039E
:10076400FB6101233B6200237B620023BB6207F130
:100774001C031946114800F06BFA4023FB61012366
:100784003B6200237B620023BB6207F11C03194612
:100794000B4800F05DFA8023FB6100233B620023D9
:1007A4007B6207F11C031946054800F051FA00BFAB
:1007B4003037BD4680BD00BF00380240000402400F
:1007C400001802400008024080B400AF72B600BFB7
:1007D400FEE7000080B483B000AF00237B60104BC1
:1007E4005B6C0F4A43F4804353640D4B5B6C03F41E
:1007F40080437B607B6800233B60094B1B6C084A89
:1008040043F080531364064B1B6C03F080533B602E
:100814003B6800BF0C37BD465DF8047B704700BFE2
:100824000038024080B400AFFEE780B400AFFEE7BA
:1008340080B400AFFEE780B400AFFEE780B400AF41
:10084400FEE780B400AF00BFBD465DF8047B70478F
:1008540080B400AF00BFBD465DF8047B704780B430
:1008640000AF00BFBD465DF8047B704780B500AFA4
:1008740000F0C4F800BF80BD80B400AF064BD3F8CD
:100884008830054A43F47003C2F8883000BFBD467F
:100894005DF8047B704700BF00ED00E0DFF834D062
:1008A4000D480E490E4A002302E0D458C4500433C4
:1008B400C4188C42F9D30B4A0B4C002301E013609B
:1008C4000432A242FBD3FFF7D7FF01F09FF9FFF7F1
:1008D40055FE704700000420000000200C0000209A
:1008E400A01C00080C0000202C000020FEE70000E3
:1008F40080B500AF0E4B1B680D4A43F400731360C0
:100904000B4B1B680A4A43F480631360084B1B6853
:10091400074A43F480731360032000F065F9002054
:1009240000F03CF8FFF756FF0023184680BD00BFD7
:10093400003C024080B500AF134B4FF0FF321A6207
:10094400114B00221A62104B4FF0FF325A620E4BC9
:1009540000225A620C4B4FF0FF321A610A4B0022FC
:100964001A61094B4FF0FF325A61074B00225A615A
:10097400054B4FF0FF329A61034B00229A6100F05D
:1009840005F80023184680BD0038024080B400AF4B
:1009940000BFBD465DF8047B7047000080B582B09F
:1009A40000AF7860124B1A68124B1B7819464FF44B
:1009B4007A73B3FBF1F3B2FBF3F3184600F03BF99F
:1009C4000346002B01D001230EE07B680F2B0AD8CD
:1009D400002279684FF0FF3000F011F9064A7B6875
:1009E4001360002300E0012318460837BD4680BD8C
:1009F40000000020080000200400002080B400AFA4
:100A0400064B1B781A46064B1B681344044A1360B2
:100A140000BFBD465DF8047B704700BF080000209E
:100A24002800002080B400AF034B1B681846BD4665
:100A34005DF8047B704700BF2800002080B584B0B7
:100A440000AF7860FFF7EEFFB8607B68FB60FB687F
:100A5400B3F1FF3F05D00A4B1B781A46FB681344D9
:100A6400FB6000BFFFF7DEFF0246BB68D31AFA68DB
:100A74009A42F7D800BF00BF1037BD4680BD00BF03
:100A84000800002080B485B000AF78607B6803F074
:100A94000703FB600C4BDB68BB60BA684FF6FF03CF
:100AA4001340BB60FB681A02BB68134343F0BF6387
:100AB40043F40033BB60044ABB68D36000BF1437FF
:100AC400BD465DF8047B704700ED00E080B400AFE4
:100AD400044BDB681B0A03F007031846BD465DF8A8
:100AE400047B704700ED00E080B483B000AF0346A0
:100AF4003960FB7197F90730002B0ADB3B68DAB2E7
:100B04000C4997F907301201D2B20B4483F8002341
:100B14000AE03B68DAB20849FB7903F00F03043BAF
:100B24001201D2B20B441A7600BF0C37BD465DF8F1
:100B3400047B704700E100E000ED00E080B489B080
:100B440000AFF860B9607A60FB6803F00703FB61EB
:100B5400FB69C3F10703042B28BF0423BB61FB69B2
:100B64000433062B02D9FB69033B00E000237B61BD
:100B74004FF0FF32BB6902FA03F3DA43BB681A4051
:100B84007B699A404FF0FF317B6901FA03F3D94343
:100B94007B680B40134318462437BD465DF8047B3D
:100BA4007047000080B582B000AF78607B68013B7D
:100BB400B3F1807F01D301230FE00A4A7B68013B34
:100BC40053600F214FF0FF30FFF78EFF054B0022DB
:100BD4009A60044B07221A60002318460837BD4662
:100BE40080BD00BF10E000E080B582B000AF786047
:100BF4007868FFF747FF00BF0837BD4680BD80B562
:100C040086B000AF0346B9607A60FB7300237B6152
:100C1400FFF75CFF78617A68B9687869FFF78EFF3F
:100C2400024697F90F3011461846FFF75DFF00BFE3
:100C34001837BD4680BD80B582B000AF7860786853
:100C4400FFF7B0FF034618460837BD4680BD0000D5
:100C540080B489B000AF7860396000237B610023E1
:100C64003B610023BB610023FB6165E10122FB6959
:100C740002FA03F37B613B681B687A6913403B61AA
:100C84003A697B699A4240F054813B685B6803F09F
:100C94000303012B05D03B685B6803F00303022BBD
:100CA40030D17B689B68BB61FB695B00032202FA5D
:100CB40003F3DB43BA691340BB613B68DA68FB6941
:100CC4005B0002FA03F3BA691343BB617B68BA6938
:100CD4009A607B685B68BB610122FB6902FA03F3DB
:100CE400DB43BA691340BB613B685B681B0903F0D3
:100CF4000102FB6902FA03F3BA691343BB617B681F
:100D0400BA695A603B685B6803F00303032B17D08E
:100D14007B68DB68BB61FB695B00032202FA03F3B7
:100D2400DB43BA691340BB613B689A68FB695B00AB
:100D340002FA03F3BA691343BB617B68BA69DA60E8
:100D44003B685B6803F00303022B23D1FB69DA08D9
:100D54007B68083253F82230BB61FB6903F0070358
:100D64009B000F2202FA03F3DB43BA691340BB6111
:100D74003B681A69FB6903F007039B0002FA03F35B
:100D8400BA691343BB61FB69DA087B680832B96945
:100D940043F822107B681B68BB61FB695B0003227C
:100DA40002FA03F3DB43BA691340BB613B685B6837
:100DB40003F00302FB695B0002FA03F3BA6913430D
:100DC400BB617B68BA691A603B685B6803F44033B3
:100DD400002B00F0AE800023FB605D4B5B6C5C4A33
:100DE40043F4804353645A4B5B6C03F48043FB60CD
:100DF400FB68584AFB699B08023352F82330BB61F5
:100E0400FB6903F003039B000F2202FA03F3DB43A5
:100E1400BA691340BB617B684F4A934225D07B6813
:100E24004E4A93421FD07B684D4A934219D07B6847
:100E34004C4A934213D07B684B4A93420DD07B6853
:100E44004A4A934207D07B68494A934201D1062318
:100E54000CE007230AE0052308E0042306E003234B
:100E640004E0022302E0012300E00023FA6902F017
:100E7400030292009340BA691343BB613549FB698D
:100E84009B080233BA6941F823203A4B1B68BB61C3
:100E94003B69DB43BA691340BB613B685B6803F49D
:100EA4008033002B03D0BA693B691343BB61314AD9
:100EB400BB6913602F4B5B68BB613B69DB43BA6959
:100EC4001340BB613B685B6803F40033002B03D021
:100ED400BA693B691343BB61264ABB695360254B1E
:100EE4009B68BB613B69DB43BA691340BB613B68E8
:100EF4005B6803F48013002B03D0BA693B69134386
:100F0400BB611C4ABB6993601A4BDB68BB613B69DC
:100F1400DB43BA691340BB613B685B6803F40013AD
:100F2400002B03D0BA693B691343BB61114ABB6907
:100F3400D360FB690133FB61FB690F2B7FF696AE2F
:100F440000BF00BF2437BD465DF8047B704700BF77
:100F54000038024000380140000002400004024012
:100F640000080240000C024000100240001402403D
:100F740000180240003C014080B487B000AF7860A4
:100F8400396000233B610023FB600023BB60002326
:100F94007B61C7E001227B6902FA03F33B613A6893
:100FA4003B691340FB60FA683B699A4240F0B780A2
:100FB400624A7B699B08023352F82330BB607B6929
:100FC40003F003039B000F2202FA03F3BA681340F1
:100FD400BB607B685A4A934225D07B68594A934246
:100FE4001FD07B68584A934219D07B68574A934272
:100FF40013D07B68564A93420DD07B68554A93427E
:1010040007D07B68544A934201D106230CE007239E
:101014000AE0052308E0042306E0032304E0022396
:1010240002E0012300E000237A6902F00302920047
:101034009340BA689A4232D1484B1A68FB68DB4342
:10104400464913400B60454B5A68FB68DB434349F0
:1010540013404B60414B9A68FB68DB433F491340A4
:101064008B603E4BDA68FB68DB433C491340CB6042
:101074007B6903F003039B000F2202FA03F3BB60B6
:101084002E4A7B699B08023352F82310BB68DA436B
:101094002A487B699B080A40023340F823207B6876
:1010A4001A687B695B00032101FA03F3DB431A40EE
:1010B4007B681A607B69DA087B68083253F822106F
:1010C4007B6903F007039B000F2202FA03F3DB435F
:1010D4007A69D20819407B68083243F822107B6889
:1010E400DA687B695B00032101FA03F3DB431A40EE
:1010F4007B68DA607B685A6801217B6901FA03F333
:10110400DB431A407B685A607B689A687B695B00A2
:10111400032101FA03F3DB431A407B689A607B697D
:1011240001337B617B690F2B7FF634AF00BF00BFB7
:101134001C37BD465DF8047B704700BF0038014092
:10114400000002400004024000080240000C02407B
:10115400001002400014024000180240003C01400C
:1011640080B483B000AF78600B467B8013467B70FD
:101174007B78002B03D07A887B689A6103E07B88B4
:101184001A047B689A6100BF0C37BD465DF8047B86
:101194007047000080B584B000AF786039607B6828
:1011A400002B01D10123CCE0684B1B6803F007033B
:1011B4003A689A420CD9654B3A68D2B21A70634BBA
:1011C4001B6803F007033A689A4201D00123B8E090
:1011D4007B681B6803F00203002B20D07B681B682C
:1011E40003F00403002B05D0594B9B68584A43F481
:1011F400E05393607B681B6803F00803002B05D061
:10120400534B9B68524A43F460439360504B9B6832
:1012140023F0F0027B689B684D4913438B607B6825
:101224001B6803F00103002B44D07B685B68012B2F
:1012340007D1474B1B6803F40033002B19D101235A
:101244007FE07B685B68022B03D07B685B68032BC1
:1012540007D13F4B1B6803F00073002B09D1012316
:101264006FE03B4B1B6803F00203002B01D1012309
:1012740067E0374B9B6823F003027B685B68344963
:1012840013438B60FFF7CEFBF8600AE0FFF7CAFB5D
:101294000246FB68D31A41F28832934201D90323F0
:1012A4004FE02B4B9B6803F00C027B685B689B0050
:1012B4009A42EBD1254B1B6803F007033A689A4224
:1012C4000CD2224B3A68D2B21A70204B1B6803F03E
:1012D40007033A689A4201D0012332E07B681B6815
:1012E40003F00403002B08D0194B9B6823F4E0524D
:1012F4007B68DB68164913438B607B681B6803F0CB
:101304000803002B09D0124B9B6823F460427B68CE
:101314001B69DB000E4913438B6000F021F8024681
:101324000B4B9B681B0903F00F030A49CB5C22FAA1
:1013340003F3094A1360094B1B681846FFF72EFB99
:10134400002318461037BD4680BD00BF003C024054
:1013540000380240801C0008000000200400002027
:101364002DE9B04F94B000AF00237B640023FB64ED
:1013740000233B640023BB64794B9B6803F00C039C
:10138400082B0DD0082B00F2E180002B02D0042B97
:1013940003D0DBE0734BBB64DBE0734BBB64D8E08E
:1013A4006F4B5B6803F03F037B646D4B5B6803F436
:1013B4008003002B63D06A4B5B689B090022BB63EC
:1013C400FA63BB6BC3F308033B6300237B63D7E976
:1013D4000C4522462B464FF000004FF00001590106
:1013E40041EAD261500102460B462146511A396145
:1013F400294663EB01037B614FF000024FF00003C9
:10140400D7E904AB59468B01514643EA91635146EF
:101414008A015146B2EB0108594663EB01094FF0CA
:1014240000024FF000034FEAC90343EA58734FEA3E
:10143400C80290469946234618EB0303BB602B462B
:1014440049EB0303FB604FF000024FF00003D7E9C0
:10145400024529464B02214643EAD15321464A021A
:10146400104619467B6C0022BB62FA62D7E90A2354
:10147400FEF7C6FE02460B461346FB6458E0384BA3
:101484005B689B09002218461146C0F308033B62BF
:1014940000237B62D7E9088942464B464FF000009F
:1014A4004FF00001590141EAD261500102460B4656
:1014B4004146B2EB010A494663EB010B4FF00002CF
:1014C4004FF000034FEA8B1343EA9A634FEA8A1200
:1014D400B2EB0A0463EB0B054FF000024FF000037C
:1014E400EB0043EA5473E20014461D464346E318F6
:1014F4003B604B4645EB03037B604FF000024FF02B
:101504000003D7E9004529468B02214643EA91535B
:1015140021468A02104619467B6C0022BB61FA619F
:10152400D7E90623FEF76CFE02460B461346FB641E
:101534000B4B5B681B0C03F0030301335B003B6440
:10154400FA6C3B6CB2FBF3F3BB6402E0054BBB6487
:1015540000BFBB6C18465037BD46BDE8B08F00BF16
:10156400003802400024F40000127A0080B582B0F2
:1015740000AFFFF757FA78605D4B1B685C4A43F095
:101584000103136008E0FFF74DFA02467B68D31AA3
:10159400022B01D90323A7E0554B1B6803F0020378
:1015A400002BF0D0524B1B68514A43F08003136068
:1015B400FFF738FA78604E4B00229A600AE0FFF792
:1015C40031FA02467B68D31A41F28832934201D938
:1015D400032389E0464B9B6803F00C03002BEED1F8
:1015E400FFF720FA7860424B1B68414A23F45023EA
:1015F400136008E0FFF716FA02467B68D31A642BDF
:1016040001D9032370E03A4B1B6803F40033002B29
:10161400F0D1FFF707FA7860354B1B68344A23F0A2
:101624008073136008E0FFF7FDF902467B68D31A64
:10163400022B01D9032357E02D4B1B6803F00073E1
:10164400002BF0D1FFF7EEF97860294B1B68284A8C
:1016540023F08063136008E0FFF7E4F902467B6837
:10166400D31A022B01D903233EE0214B1B6803F05C
:101674000063002BF0D11E4B1E4A5A601C4B1D4ABE
:10168400C3F884201A4BDB68194A23F4F853D36057
:10169400174BDB68164A23F40053D360144BDB6802
:1016A400134A43F41F03D360114BDB68104A43F41D
:1016B4000013D3600E4B5B6F0D4A23F00103536795
:1016C4000B4B5B6F0A4A43F0807353670A4B0B4A18
:1016D4001A600B4B1B681846FFF760F90346002B92
:1016E40001D0012300E0002318460837BD4680BD21
:1016F4000038024010300024000000200024F400D0
:101704000400002080B586B000AF78607B68002BB1
:1017140001D1012373E27B681B6803F00103002BF2
:1017240075D0884B9B6803F00C03042B0CD0854BBD
:101734009B6803F00C03082B12D1824B5B6803F403
:101744008003B3F5800F0BD17E4B1B6803F4003389
:10175400002B5BD07B685B68002B57D101234EE2E2
:101764007B685B68B3F5803F06D1764B1B68754A8E
:1017740043F4803313601DE07B685B68B3F5A02FEE
:101784000CD1704B1B686F4A43F4802313606D4B7C
:101794001B686C4A43F4803313600BE0694B1B688D
:1017A400684A23F480331360664B1B68654A23F44C
:1017B400802313607B685B68002B13D0FFF732F93A
:1017C400386108E0FFF72EF902463B69D31A642B0F
:1017D40001D9032313E25B4B1B6803F40033002B92
:1017E400F0D014E0FFF71EF9386108E0FFF71AF9AA
:1017F40002463B69D31A642B01D90323FFE1514B01
:101804001B6803F40033002BF0D100E000BF7B68B9
:101814001B6803F00203002B63D04A4B9B6803F060
:101824000C03002B0BD0474B9B6803F00C03082BD5
:101834001CD1444B5B6803F48003002B16D1414B4D
:101844001B6803F00203002B05D07B68DB68012BC7
:1018540001D00123D3E13B4B1B6823F0F8027B68E2
:101864001B69DB00374913430B603AE07B68DB6894
:10187400002B20D0344B01221A60FFF7D3F83861D3
:1018840008E0FFF7CFF802463B69D31A022B01D9CF
:101894000323B4E12B4B1B6803F00203002BF0D0AD
:1018A400284B1B6823F0F8027B681B69DB00254981
:1018B40013430B6015E0244B00221A60FFF7B2F8C3
:1018C400386108E0FFF7AEF802463B69D31A022BF1
:1018D40001D9032393E11B4B1B6803F00203002B84
:1018E400F0D17B681B6803F00803002B36D07B68BB
:1018F4005B69002B16D0154B01221A60FFF792F892
:10190400386108E0FFF78EF802463B69D31A022BD0
:1019140001D9032373E10B4B5B6F03F00203002B2C
:10192400F0D01BE0094B00221A60FFF77BF8386106
:101934000EE0FFF777F802463B69D31A022B07D96A
:1019440003235CE10038024000004742800E474216
:101954008A4B5B6F03F00203002BEAD17B681B68A0
:1019640003F00403002B00F097800023FB75834BE6
:101974001B6C03F08053002B0FD10023BB607F4B03
:101984001B6C7E4A43F0805313647C4B1B6C03F046
:101994008053BB60BB680123FB75794B1B6803F460
:1019A4008073002B18D1764B1B68754A43F48073FF
:1019B4001360FFF737F8386108E0FFF733F80246A1
:1019C4003B69D31A022B01D9032318E16C4B1B6822
:1019D40003F48073002BF0D07B689B68012B06D145
:1019E400664B1B6F654A43F0010313671CE07B6879
:1019F4009B68052B0CD1614B1B6F604A43F00403B9
:101A040013675E4B1B6F5D4A43F0010313670BE0E2
:101A14005A4B1B6F594A23F001031367574B1B6F33
:101A2400564A23F0040313677B689B68002B15D088
:101A3400FEF7F8FF38610AE0FEF7F4FF02463B695F
:101A4400D31A41F28832934201D90323D7E04B4B96
:101A54001B6F03F00203002BEED014E0FEF7E2FF4D
:101A640038610AE0FEF7DEFF02463B69D31A41F211
:101A74008832934201D90323C1E0404B1B6F03F02A
:101A84000203002BEED1FB7D012B05D13B4B1B6CDC
:101A94003A4A23F0805313647B689B69002B00F05F
:101AA400AD80364B9B6803F00C03082B60D07B6839
:101AB4009B69022B45D1334B00221A60FEF7B2FF1B
:101AC400386108E0FEF7AEFF02463B69D31A022BE9
:101AD40001D9032393E0294B1B6803F00073002B07
:101AE400F0D17B68DA697B681B6A1A437B685B6A9E
:101AF4009B011A437B689B6A5B08013B1B041A43E6
:101B04007B68DB6A1B061A437B681B6B1B071B493C
:101B140013434B601B4B01221A60FEF783FF3861AD
:101B240008E0FEF77FFF02463B69D31A022B01D976
:101B3400032364E0114B1B6803F00073002BF0D007
:101B44005CE0104B00221A60FEF76CFF386108E07D
:101B5400FEF768FF02463B69D31A022B01D903231F
:101B64004DE0064B1B6803F00073002BF0D145E0F9
:101B74007B689B69012B07D1012340E000380240B8
:101B840000700040600047421F4B5B68FB607B684D
:101B94009B69012B30D0FB6803F480027B68DB690E
:101BA4009A4229D1FB6803F03F027B681B6A9A4280
:101BB40022D1FA6847F6C07313407A68526A9201D8
:101BC400934219D1FB6803F440327B689B6A5B083B
:101BD400013B1B049A420FD1FB6803F070627B68DF
:101BE400DB6A1B069A4207D1FB6803F0E0427B687C
:101BF4001B6B1B079A4201D0012300E00023184607
:101C04001837BD4680BD00BF0038024070B50D4D89
:101C14000D4C641BA4100026A64209D10B4D0C4C9C
:101C240000F020F8641BA4100026A64205D170BD64
:101C340055F8043B98470136EEE755F8043B9847BE
:101C44000136F2E7981C0008981C0008981C00084C
:101C54009C1C000802440346934200D1704703F8D9
:101C6400011BF9E7F8B500BFF8BC08BC9E467047F5
:0C1C7400F8B500BFF8BC08BC9E467047E5
:101C8000000000000000000001020304060708092C
:081C9000A4E5FF7F0100000044
:041C9800E901000856
:041C9C00C501000876
:0C1CA0000024F40010000000010000000F
:04000005080008A146
:00000001FF
